:020000040800F2
:10000000005000204D010008FD040008050500080F
:100010000D050008150500081D050008000000007A
:10002000000000000000000000000000250500089E
:1000300031050008000000003D05000849050008E2
:100040009501000895010008950100089501000838
:100050009501000895010008950100089501000828
:100060009501000895010008950100089501000818
:100070009501000895010008950100089501000808
:1000800095010008950100089501000895010008F8
:1000900095010008950100089501000895010008E8
:1000A00095010008950100089501000895010008D8
:1000B00095010008950100089501000895010008C8
:1000C00095010008950100089501000895010008B8
:1000D00095010008950100089501000895010008A8
:1000E0009501000895010008950100080000000036
:1000F0000000000000000000000000000000000000
:0C01000000000000000000005FF808F1A3
:10010C0010B5054C237833B9044B13B10448AFF345
:10011C0000800123237010BD7C0000200000000033
:10012C006825000808B5034B1BB103490348AFF31E
:10013C00008008BD00000000800000206825000839
:10014C0000F038FA0B480C490C4A002302E0D45852
:10015C00C4500433C4188C42F9D3094A094C002307
:10016C0001E013600432A242FBD301F075FD00F0F4
:10017C000DF87047000000207C00002000260008CD
:10018C007C00002030020020FEE7000080B58CB01F
:10019C0002AF00F057FC00F06BF800F0D9F800F05B
:1001AC00ADF8102202212D4800F024FB00237B83A4
:1001BC0000F0A0FC034664337B6200F09BFC03461A
:1001CC0003F5FA733B6200F095FC034603F5FA73F2
:1001DC00FB61224800F0E2FB00F08CFC78617A694C
:1001EC007B6A9A4209D34FF400511D4800F00CFF72
:1001FC0000F080FC034664337B627A693B6A9A4266
:10020C000BD3642312221749174801F077FB00F037
:10021C0071FC034603F5FA733B627A69FB699A42F7
:10022C00DAD37B8B01337B837A8B3B460F491846A1
:10023C0001F0E4FC03467B827B8ADBB23A460093F6
:10024C00134600220021054800F08FFB00F052FC01
:10025C00034603F5FA73FB61BEE700BF0000002004
:10026C000010014080250008980000208825000817
:10027C0080B590B000AF07F1180328220021184672
:10028C0001F0DCFC3B1D00221A605A609A60DA60B7
:10029C001A610123BB614FF48033FB6100233B6285
:1002AC000123BB6202237B634FF48033BB634FF4A7
:1002BC00E013FB6307F11803184600F0BFFE03467A
:1002CC00002B01D000F090F80F237B600223BB6061
:1002DC000023FB604FF480633B6100237B613B1D7B
:1002EC000221184601F02CF90346002B01D000F036
:1002FC007BF800BF4037BD4680BD000080B500AF25
:10030C00114B124A1A60104B4FF4E1325A600E4BEB
:10031C0000229A600C4B0022DA600B4B00221A610F
:10032C00094B0C225A61084B00229A61064B0022A1
:10033C00DA61054801F092FA0346002B01D000F077
:10034C0053F800BF80BD00BF98000020003801406A
:10035C0080B588B000AF07F1100300221A605A6014
:10036C009A60DA601E4B9B691D4A43F0100393613F
:10037C001B4B9B6903F01003FB60FB68184B9B69DC
:10038C00174A43F020039361154B9B6903F020033C
:10039C00BB60BB68124B9B69114A43F00403936129
:1003AC000F4B9B6903F004037B607B6800224FF4C6
:1003BC0000510C4800F010FE4FF400533B61012338
:1003CC007B610023BB610323FB6107F1100319461A
:1003DC00044800F07DFC00BF2037BD4680BD00BF47
:1003EC00001002400010014080B400AF72B600BF94
:1003FC0000BFFDE780B485B000AF154B9B69144A74
:10040C0043F001039361124B9B6903F00103BB6042
:10041C00BB680F4BDB690E4A43F08053D3610C4B26
:10042C00DB6903F080537B607B680A4B5B68FB6085
:10043C00FB6823F0E063FB60FB6843F00073FB6038
:10044C00044AFB68536000BF1437BD4680BC70473C
:10045C00001002400000014080B588B000AF786009
:10046C0007F1100300221A605A609A60DA607B6808
:10047C001B681C4A934231D11B4B9B691A4A43F4AB
:10048C0080439361184B9B6903F48043FB60FB68CA
:10049C00154B9B69144A43F004039361124B9B69FF
:1004AC0003F00403BB60BB684FF400733B61022391
:1004BC007B610323FB6107F1100319460B4800F025
:1004CC0007FC4FF480633B6100237B610023BB611D
:1004DC0007F110031946054800F0FAFB00BF20375E
:1004EC00BD4680BD003801400010024000080140AC
:1004FC0080B400AF00BFFDE780B400AF00BFFDE7E4
:10050C0080B400AF00BFFDE780B400AF00BFFDE7D3
:10051C0080B400AF00BFFDE780B400AF00BFBD46A4
:10052C0080BC704780B400AF00BFBD4680BC704734
:10053C0080B400AF00BFBD4680BC704780B500AF33
:10054C0000F0C6FA00BF80BD80B586B000AF786001
:10055C00144A154BD31A7B617B693B61134B1B68A7
:10056C00002B02D1114B124A1A60104B1A687B688F
:10057C0013443A699A4207D201F068FB03460C22F5
:10058C001A604FF0FF3309E0084B1B68FB60074B08
:10059C001A687B681344054A1360FB6818461837C1
:1005AC00BD4680BD0050002000040000E00000208B
:1005BC003002002080B400AF00BFBD4680BC704745
:1005CC0080B400AF144BDB68134A23F08073D36004
:1005DC00114BDB68104A43F08073D3600F4B1B68E0
:1005EC000E4A23F0010313600C4B1B680B4A43F0BB
:1005FC0001031360094B00225A6000BF00BF00BF0B
:10060C00064B5B68002B01D0002300E00123184649
:10061C00BD4680BC704700BFF0ED00E0001000E06C
:10062C0080B584B000AF78600D4B5B68FB6001F067
:10063C00C5F803460B4AA2FB03239B0C7A6802FB0A
:10064C0003F37B6000BF064B5A68FB68D21A7B68C9
:10065C009A42F8D300BF00BF1037BD4680BD00BF23
:10066C00001000E083DE1B4380B582B000AF034670
:10067C00FB80FB881846FFF7D3FF00BF0837BD4649
:10068C0080BD80B483B000AF78600B46FB707B6894
:10069C005B68DA687B681B7A19460F238B40DB4357
:1006AC0019467B685B680A40DA607B685B68DA68CD
:1006BC00FB787968097A8B4019467B685B680A433A
:1006CC00DA6000BF0C37BD4680BC704780B582B085
:1006DC0000AF78600B46FB707B6858697B681B8B9E
:1006EC00FA78194600F078FC00BF0837BD4680BD8B
:1006FC0080B582B000AF78600B46FB707B68D86821
:10070C007B681B8AFA78194600F066FC00BF083734
:10071C00BD4680BD80B586B000AF786007F1080398
:10072C0000221A605A609A60DA607B681B8BBB608F
:10073C000123FB6002237B617B685B6907F1080284
:10074C001146184600F0C4FA7B681B8ABB607B68B4
:10075C00DB6807F108021146184600F0B9FA7B680D
:10076C001B7A1A460F239340BB607B685B6807F1CA
:10077C0008021146184600F0ABFA00BF1837BD4608
:10078C0080BD80B582B000AF78600B46FB7013461D
:10079C00BB70FB7819467868FFF798FFBB781B098C
:1007AC00DBB219467868FFF76CFF01217868FFF718
:1007BC009FFF0A20FFF758FF00217868FFF798FF8A
:1007CC006420FFF751FFBB7819467868FFF759FF93
:1007DC0001217868FFF78CFF0A20FFF745FF002105
:1007EC007868FFF785FF6420FFF73EFF00BF0837EE
:1007FC00BD4680BD80B584B000AF78600B46FB7001
:10080C001346BB70FFF7DCFE7868FFF783FF7B684D
:10081C0000229A767B684022DA767B68BA781A775F
:10082C00BB784033DAB27B685A7700217868FFF7DF
:10083C004DFF00217868FFF75BFF4CF25030FFF75B
:10084C0013FF0023FB7318E003217868FFF719FFEF
:10085C0001217868FFF74CFF0A20FFF705FF002104
:10086C007868FFF745FF6420FFF7FEFE41F2941015
:10087C00FFF7FAFEFB7B0133FB73FB7B012BE3D908
:10088C0003217868FFF7FDFE01217868FFF730FF40
:10089C000A20FFF7E9FE00217868FFF729FF6420A2
:1008AC00FFF7E2FE9620FFF7DFFE02217868FFF7E4
:1008BC00E8FE01217868FFF71BFF0A20FFF7D4FE42
:1008CC0000217868FFF714FF6420FFF7CDFE282283
:1008DC0000217868FFF755FF00230022012178687A
:1008EC0000F06DF8786800F059F800BF1037BD467D
:1008FC0080BD80B582B000AF78600B46FB701346AC
:10090C00BB70FB787A6813449A7EBB781344DBB2D5
:10091C005BB263F07F035BB2DBB21A4600217868EE
:10092C00FFF72FFF00BF0837BD4680BD80B586B0EE
:10093C0000AFF860B9601346FB710023FB750BE048
:10094C00BB685A1CBA601B781A460121F868FFF77D
:10095C0018FFFB7D0133FB75FA7DFB799A42EFD3CF
:10096C0000BF00BF1837BD4680BD80B584B000AF56
:10097C00F8607B600B46FB721346BB72BA7AFB7A4B
:10098C001946F868FFF7B5FF3B7E1A467968F86898
:10099C00FFF7CCFF00BF1037BD4680BD80B582B0DD
:1009AC0000AF7860012200217868FFF7EAFE4FF46F
:1009BC00FA60FFF759FE00BF0837BD4680BD80B511
:1009CC0082B000AF7860084611461A460346FB70A9
:1009DC000B46BB7013467B707B6800229A77FB78C2
:1009EC00002B06D07B689B7F43F00403DAB27B6854
:1009FC009A77BB78002B06D07B689B7F43F0020371
:100A0C00DAB27B689A777B78002B06D07B689B7F69
:100A1C0043F00103DAB27B689A777B689B7F43F0E3
:100A2C000403DAB27B689A777B689B7F43F00803F8
:100A3C00DBB21A4600217868FFF7A3FE00BF083727
:100A4C00BD4680BD80B500AF084B1B68074A43F01C
:100A5C0010031360032000F007F90F2000F008F8D2
:100A6C00FFF7C8FC0023184680BD00BF00200240E1
:100A7C0080B582B000AF7860124B1A68124B1B78AD
:100A8C0019464FF47A73B3FBF1F3B2FBF3F3184648
:100A9C0000F011F90346002B01D001230EE07B6816
:100AAC000F2B0AD8002279684FF0FF3000F0E7F8DE
:100ABC00064A7B681360002300E0012318460837C0
:100ACC00BD4680BD2000002028000020240000200E
:100ADC0080B400AF054B1B781A46054B1B681344BA
:100AEC00034A136000BFBD4680BC7047280000203D
:100AFC00E400002080B400AF024B1B681846BD46D2
:100B0C0080BC7047E400002080B485B000AF7860F2
:100B1C007B6803F00703FB600C4BDB68BB60BA68B7
:100B2C004FF6FF031340BB60FB681A02BB6813430C
:100B3C0043F0BF6343F40033BB60044ABB68D3602B
:100B4C0000BF1437BD4680BC704700BF00ED00E00D
:100B5C0080B400AF044BDB681B0A03F00703184694
:100B6C00BD4680BC704700BF00ED00E080B483B090
:100B7C0000AF03463960FB7197F90730002B0ADB95
:100B8C003B68DAB20C4997F907301201D2B20B4428
:100B9C0083F800230AE03B68DAB20849FB7903F0DA
:100BAC000F03043B1201D2B20B441A7600BF0C3770
:100BBC00BD4680BC704700BF00E100E000ED00E0E6
:100BCC0080B489B000AFF860B9607A60FB6803F05C
:100BDC000703FB61FB69C3F10703042B28BF042344
:100BEC00BB61FB690433062B02D9FB69033B00E0B4
:100BFC0000237B614FF0FF32BB6902FA03F3DA4347
:100C0C00BB681A407B699A404FF0FF317B6901FA4F
:100C1C0003F3D9437B680B40134318462437BD4676
:100C2C0080BC704780B582B000AF78607B68013BB8
:100C3C00B3F1807F01D301230FE00A4A7B68013BAB
:100C4C0053600F214FF0FF30FFF790FF054B002250
:100C5C009A60044B07221A60002318460837BD46D9
:100C6C0080BD00BF10E000E080B582B000AF7860BE
:100C7C007868FFF749FF00BF0837BD4680BD80B5D7
:100C8C0086B000AF0346B9607A60FB7300237B61CA
:100C9C00FFF75EFF78617A68B9687869FFF790FFB3
:100CAC00024697F90F3011461846FFF75FFF00BF59
:100CBC001837BD4680BD80B582B000AF78607868CB
:100CCC00FFF7B0FF034618460837BD4680BD00004D
:100CDC0080B48BB000AF7860396000237B62002356
:100CEC003B6269E101227B6A02FA03F3FB613B6818
:100CFC001B68FA691340BB61BA69FB699A4240F000
:100D0C0058813B685B689A4A93425ED0984A9342FA
:100D1C0075D8984A934258D0964A93426FD8964ABF
:100D2C00934252D0944A934269D8944A93424CD0FD
:100D3C00924A934263D8924A934246D0904A934245
:100D4C005DD8122B2AD8122B59D801A252F823F0B5
:100D5C00D70D0008B10D0008C30D0008050E0008E2
:100D6C000B0E00080B0E00080B0E00080B0E0008F3
:100D7C000B0E00080B0E00080B0E00080B0E0008E3
:100D8C000B0E00080B0E00080B0E00080B0E0008D3
:100D9C000B0E0008B90D0008CD0D0008794A9342DE
:100DAC0013D02CE03B68DB683B6229E03B68DB68D6
:100DBC0004333B6224E03B68DB6808333B621FE092
:100DCC003B68DB680C333B621AE03B689B68002B8A
:100DDC0002D104233B6213E03B689B68012B05D1D5
:100DEC0008233B627B68FA691A6109E008233B62BD
:100DFC007B68FA695A6103E000233B6200E000BFA4
:100E0C00BB69FF2B01D87B6801E07B6804337B61F5
:100E1C00BB69FF2B02D87B6A9B0002E07B6A083B14
:100E2C009B003B617B691A680F213B6901FA03F354
:100E3C00DB431A40396A3B6901FA03F31A437B69B5
:100E4C001A603B685B6803F08053002B00F0B180A4
:100E5C004D4B9B694C4A43F0010393614A4B9B6990
:100E6C0003F00103BB60BB68484A7B6A9B080233F2
:100E7C0052F82330FB607B6A03F003039B000F22C4
:100E8C0002FA03F3DB43FA681340FB607B68404AC9
:100E9C00934213D07B683F4A93420DD07B683E4A05
:100EAC00934207D07B683D4A934201D1032306E06D
:100EBC00042304E0022302E0012300E000237A6A09
:100ECC0002F0030292009340FA681343FB602F492F
:100EDC007B6A9B080233FA6841F823203B685B6805
:100EEC0003F48013002B06D02D4B9A682C49BB6958
:100EFC0013438B6006E02A4B9A68BB69DB43284995
:100F0C0013408B603B685B6803F40013002B06D026
:100F1C00234BDA682249BB691343CB6006E0204BB4
:100F2C00DA68BB69DB431E491340CB603B685B68E6
:100F3C0003F40033002B06D0194B5A681849BB69CF
:100F4C0013434B6006E0164B5A68BB69DB431449EC
:100F5C0013404B603B685B6803F48033002B21D05B
:100F6C000F4B1A680E49BB6913430B6021E000BF9D
:100F7C00000032100000311000002210000021107F
:100F8C00000012100000111000100240000001407F
:100F9C0000080140000C0140001001400014014009
:100FAC00000401400B4B1A68BB69DB430949134031
:100FBC000B607B6A01337B623B681A687B6A22FA9E
:100FCC0003F3002B7FF48EAE00BF00BF2C37BD4661
:100FDC0080BC70470004014080B483B000AF7860DF
:100FEC000B467B8013467B707B78002B03D07A8872
:100FFC007B681A6103E07B881A047B681A6100BF66
:10100C000C37BD4680BC704780B485B000AF7860AB
:10101C000B467B807B68DB68FB607A88FB6813403F
:10102C001A04FB68D9437B880B401A437B681A610E
:10103C0000BF1437BD4680BC7047000080B586B039
:10104C0000AF78607B68002B01D1012372E27B68D2
:10105C001B6803F00103002B00F08780924B5B6848
:10106C0003F00C03042B0CD08F4B5B6803F00C03C8
:10107C00082B12D18C4B5B6803F48033B3F5803FA3
:10108C000BD1894B1B6803F40033002B6CD07B68AD
:10109C005B68002B68D101234CE27B685B68B3F57D
:1010AC00803F06D1804B1B687F4A43F4803313602A
:1010BC002EE07B685B68002B0CD17B4B1B687A4A5B
:1010CC0023F480331360784B1B68774A23F4802316
:1010DC0013601DE07B685B68B3F5A02F0CD1724BDD
:1010EC001B68714A43F4802313606F4B1B686E4A74
:1010FC0043F4803313600BE06B4B1B686A4A23F498
:10110C0080331360684B1B68674A23F48023136099
:10111C007B685B68002B13D0FFF7ECFC386108E0B0
:10112C00FFF7E8FC02463B69D31A642B01D9032371
:10113C0000E25D4B1B6803F40033002BF0D014E08D
:10114C00FFF7D8FC386108E0FFF7D4FC02463B6996
:10115C00D31A642B01D90323ECE1534B1B6803F422
:10116C000033002BF0D100E000BF7B681B6803F05C
:10117C000203002B63D04C4B5B6803F00C03002B79
:10118C000BD0494B5B6803F00C03082B1CD1464B6E
:10119C005B6803F48033002B16D1434B1B6803F0C0
:1011AC000203002B05D07B681B69012B01D00123A6
:1011BC00C0E13D4B1B6823F0F8027B685B69DB00E8
:1011CC00394913430B603AE07B681B69002B20D034
:1011DC00364B01221A60FFF78DFC386108E0FFF7EF
:1011EC0089FC02463B69D31A022B01D90323A1E1E6
:1011FC002D4B1B6803F00203002BF0D02A4B1B680D
:10120C0023F0F8027B685B69DB00274913430B6012
:10121C0015E0264B00221A60FFF76CFC386108E0E1
:10122C00FFF768FC02463B69D31A022B01D9032352
:10123C0080E11D4B1B6803F00203002BF0D17B688F
:10124C001B6803F00803002B3AD07B689B69002BCA
:10125C0019D0174B01221A60FFF74CFC386108E0DB
:10126C00FFF748FC02463B69D31A022B01D9032332
:10127C0060E10D4B5B6A03F00203002BF0D0012000
:10128C0000F0CEFA1CE00A4B00221A60FFF732FC89
:10129C0038610FE0FFF72EFC02463B69D31A022B94
:1012AC0008D9032346E100BF00100240000042426F
:1012BC0080044242924B5B6A03F00203002BE9D19B
:1012CC007B681B6803F00403002B00F0A68000234E
:1012DC00FB758B4BDB6903F08053002B0DD1884BD6
:1012EC00DB69874A43F08053D361854BDB6903F09C
:1012FC008053BB60BB680123FB75824B1B6803F4F6
:10130C008073002B18D17F4B1B687E4A43F480738B
:10131C001360FFF7EFFB386108E0FFF7EBFB0246C9
:10132C003B69D31A642B01D9032303E1754B1B686A
:10133C0003F48073002BF0D07B68DB68012B06D1A3
:10134C006F4B1B6A6E4A43F0010313622DE07B68FE
:10135C00DB68002B0CD16A4B1B6A694A23F0010332
:10136C001362674B1B6A664A23F0040313621CE08A
:10137C007B68DB68052B0CD1614B1B6A604A43F020
:10138C00040313625E4B1B6A5D4A43F00103136254
:10139C000BE05B4B1B6A5A4A23F001031362584B58
:1013AC001B6A574A23F0040313627B68DB68002B2B
:1013BC0015D0FFF79FFB38610AE0FFF79BFB024655
:1013CC003B69D31A41F28832934201D90323B1E02D
:1013DC004B4B1B6A03F00203002BEED014E0FFF71B
:1013EC0089FB38610AE0FFF785FB02463B69D31A9B
:1013FC0041F28832934201D903239BE0404B1B6A94
:10140C0003F00203002BEED1FB7D012B05D13C4BED
:10141C00DB693B4A23F08053D3617B68DB69002B8B
:10142C0000F08780364B5B6803F00C03082B61D00F
:10143C007B68DB69022B46D1334B00221A60FFF725
:10144C0059FB386108E0FFF755FB02463B69D31A9C
:10145C00022B01D903236DE0294B1B6803F00073A9
:10146C00002BF0D17B681B6AB3F5803F08D1244B6D
:10147C005B6823F400327B689B68214913434B6003
:10148C001F4B5B6823F474127B68196A7B685B6A78
:10149C000B431B4913434B601B4B01221A60FFF794
:1014AC0029FB386108E0FFF725FB02463B69D31A9C
:1014BC00022B01D903233DE0114B1B6803F0007391
:1014CC00002BF0D035E0104B00221A60FFF712FB16
:1014DC00386108E0FFF70EFB02463B69D31A022B7A
:1014EC0001D9032326E0064B1B6803F00073002B85
:1014FC00F0D11EE07B68DB69012B07D1012319E0D9
:10150C000010024000700040600042420B4B5B68D0
:10151C00FB60FB6803F480327B681B6A9A4206D13D
:10152C00FB6803F470127B685B6A9A4201D001235A
:10153C0000E0002318461837BD4680BD001002405D
:10154C0080B584B000AF786039607B68002B01D126
:10155C000123D0E06A4B1B6803F007033A689A42F8
:10156C0010D9674B1B6823F0070265493B6813438E
:10157C000B60634B1B6803F007033A689A4201D077
:10158C000123B8E07B681B6803F00203002B20D01A
:10159C007B681B6803F00403002B05D0594B5B6878
:1015AC00584A43F4E06353607B681B6803F00803FC
:1015BC00002B05D0534B5B68524A43F46053536085
:1015CC00504B5B6823F0F0027B689B684D491343DA
:1015DC004B607B681B6803F00103002B40D07B68D9
:1015EC005B68012B07D1474B1B6803F40033002BBE
:1015FC0015D101237FE07B685B68022B07D1414B3F
:10160C001B6803F00073002B09D1012373E03D4BE1
:10161C001B6803F00203002B01D101236BE0394B53
:10162C005B6823F003027B685B68364913434B60AD
:10163C00FFF760FAF8600AE0FFF75CFA0246FB6815
:10164C00D31A41F28832934201D9032353E02D4B34
:10165C005B6803F00C027B685B689B009A42EBD1E1
:10166C00274B1B6803F007033A689A4210D2244BAD
:10167C001B6823F0070222493B6813430B60204B85
:10168C001B6803F007033A689A4201D0012332E049
:10169C007B681B6803F00403002B08D0194B5B68B4
:1016AC0023F4E0627B68DB68164913434B607B686C
:1016BC001B6803F00803002B09D0124B5B6823F462
:1016CC0060527B681B69DB000E4913434B6000F0D2
:1016DC0021F802460B4B5B681B0903F00F030A4908
:1016EC00CB5C22FA03F3094A1360094B1B681846BA
:1016FC00FFF7BEF9002318461037BD4680BD00BF6A
:10170C000020024000100240982500082000002014
:10171C002400002080B487B000AF0023FB600023BE
:10172C00BB6000237B6100237B6000233B611E4B6D
:10173C005B68FB60FB6803F00C03042B02D0082BE6
:10174C0003D027E0194B3B6127E0FB689B0C03F0AF
:10175C000F03174AD35C7B60FB6803F48033002BC8
:10176C0010D0114B5B685B0C03F00103114AD35C86
:10177C00BB607B680D4A03FB02F2BB68B2FBF3F360
:10178C007B6104E07B680C4A02FB03F37B617B69A1
:10179C003B6102E0054B3B6100BF3B6918461C37BF
:1017AC00BD4680BC704700BF0010024000127A009A
:1017BC00B0250008C025000800093D0080B400AF2A
:1017CC00024B1B681846BD4680BC704720000020A9
:1017DC0080B500AFFFF7F2FF0246054B5B681B0AB2
:1017EC0003F007030349CB5C22FA03F3184680BDD0
:1017FC0000100240A825000880B500AFFFF7DEFFFF
:10180C000246054B5B68DB0A03F007030349CB5C1C
:10181C0022FA03F3184680BD00100240A8250008E8
:10182C0080B485B000AF78600A4B1B680A4AA2FBF3
:10183C0003235B0A7A6802FB03F3FB6000BFFB68BF
:10184C005A1EFA60002BF9D100BF00BF1437BD46F9
:10185C0080BC704720000020D34D621080B582B050
:10186C0000AF78607B68002B01D1012342E07B68DC
:10187C0093F84130DBB2002B06D17B68002283F851
:10188C0040207868FEF7E8FD7B68242283F841202D
:10189C007B681B68DA687B681B6822F40052DA608C
:1018AC00786800F01DF97B681B681A697B681B68F7
:1018BC0022F490421A617B681B685A697B681B682A
:1018CC0022F02A025A617B681B68DA687B681B6805
:1018DC0042F40052DA607B6800225A647B68202252
:1018EC0083F841207B68202283F842207B68002209
:1018FC005A63002318460837BD4680BD80B58AB0B0
:10190C0002AFF860B9603B601346FB8000237B613B
:10191C00FB6893F84130DBB2202B6DD1BB68002BF8
:10192C0002D0FB88002B01D1012366E0FB6800226A
:10193C005A64FB68212283F84120FFF7DBF87861B9
:10194C00FB68FA889A84FB68FA88DA84FB689B68DF
:10195C00B3F5805F08D1FB681B69002B04D1002311
:10196C00FB61BB68BB6103E0BB68FB610023BB612F
:10197C002AE03B6800937B6900228021F86800F024
:10198C0040F80346002B01D0032336E0FB69002B03
:10199C000BD1BB691B881A46FB681B68C2F3080293
:1019AC005A60BB690233BB6107E0FB691A78FB68BC
:1019BC001B685A60FB690133FB61FB68DB8C9BB2D3
:1019CC00013B9AB2FB68DA84FB68DB8C9BB2002B80
:1019DC00CFD13B6800937B6900224021F86800F06E
:1019EC0010F80346002B01D0032306E0FB682022ED
:1019FC0083F84120002300E0022318462037BD461F
:101A0C0080BD80B590B000AFF860B9603B60134604
:101A1C00FB7150E0BB6CB3F1FF3F4CD0BB6C002BA7
:101A2C0007D0FFF767F802463B68D31ABA6C9A42A4
:101A3C0041D2FB681B680C33BB62BB6A53E8003FA6
:101A4C007B627B6A23F4D073FB63FB681B680C33EB
:101A5C00FA6B7A633B63396B7A6B41E80023FB6268
:101A6C00FB6A002BE5D1FB681B6814337B617B6937
:101A7C0053E8003F3B613B6923F00103BB63FB6808
:101A8C001B681433BA6B3A62FB61F9693A6A41E834
:101A9C000023BB61BB69002BE5D1FB68202283F8D6
:101AAC004120FB68202283F84220FB68002283F847
:101ABC00402003230FE0FB681B681A68BB681340C7
:101ACC00BA689A420CBF01230023DBB21A46FB7999
:101ADC009A429FD0002318464037BD4680BD000077
:101AEC0080B584B000AF78607B681B681B6923F4F9
:101AFC0040517B68DA687B681B680A431A617B6813
:101B0C009A687B681B691A437B685B691343BB60EB
:101B1C007B681B68DB6823F4B05323F00C037A68F2
:101B2C001268B9680B43D3607B681B685B6923F44C
:101B3C0040717B689A697B681B680A435A617B68B1
:101B4C001B682C4A934203D1FFF756FEF86002E063
:101B5C00FFF73EFEF860FA6813469B0013449A00A8
:101B6C001A447B685B689B00B2FBF3F3224AA2FB2E
:101B7C0003235B091901FA6813469B0013449A006E
:101B8C001A447B685B689B00B2FBF3F21A4BA3FB15
:101B9C0002035B09642000FB03F3D31A1B013233ED
:101BAC00154AA2FB03235B0903F0F0031944FA68FE
:101BBC0013469B0013449A001A447B685B689B0095
:101BCC00B2FBF3F20C4BA3FB02035B09642000FB9A
:101BDC0003F3D31A1B013233074AA2FB03235B091D
:101BEC0003F00F027B681B680A449A6000BF103731
:101BFC00BD4680BD003801401F85EB510EB46FF01F
:101C0C00004100B59CB01DAB029006900791049169
:101C1C000848094953F8042B0591006802A901935F
:101C2C0000F092F90022029B1A701CB05DF804EBD4
:101C3C0003B070472C0000200802FFFF034602444B
:101C4C00934200D1704703F8011BF9E7014B186868
:101C5C00704700BF2C00002070B500260C4D0D4CB9
:101C6C00641BA410A64209D100F078FC00260A4D92
:101C7C000A4C641BA410A64205D170BD55F8043B58
:101C8C0098470136EEE755F8043B98470136F2E7E2
:101C9C00F8250008F8250008F8250008FC250008A0
:101CAC007047704738B50546002940D051F8043CC0
:101CBC000C1F002BB8BFE41800F0DEF81C4A1368A8
:101CCC0033B9636014602846BDE8384000F0DAB8D8
:101CDC00A34208D9206821188B4201BF19685B68A0
:101CEC0009182160EDE71A465B680BB1A342FAD9DB
:101CFC0011685018A0420BD120680144501883423F
:101D0C001160E0D118685B68084410605360DAE732
:101D1C0002D90C232B60D6E7206821188B4201BF17
:101D2C0019685B680918216063605460CBE738BDA3
:101D3C002C02002070B50F4E0C463168054611B9C7
:101D4C0000F0AAFB30602146284600F0A5FB431C9E
:101D5C0003D14FF0FF34204670BDC41C24F00304A3
:101D6C00A042F8D0211A284600F096FB0130F2D19F
:101D7C00EFE700BF280200202DE9F843CD1C25F029
:101D8C00030508350C2D38BF0C25002D064601DB4C
:101D9C00A94204D90C2333600020BDE8F883DFF896
:101DAC00D48000F069F8D8F800301C4644BB2946B2
:101DBC003046FFF7BFFF431C044658D1D8F800400B
:101DCC002746002F43D1002C4BD023683946304690
:101DDC0004EB030900F060FB814542D121683046D9
:101DEC006D1A2946FFF7A6FF01303AD023682B4421
:101DFC002360D8F800305A6862BBC8F800700FE056
:101E0C002268521B20D40B2A17D96119A3422560D2
:101E1C0018BF5960636808BFC8F8001062514B6066
:101E2C00304600F02FF804F10B00231D20F00700C2
:101E3C00C21A1CBF1B1AA350AFE76268A3420CBFA7
:101E4C00C8F800205A60EBE723466468AEE73C46CE
:101E5C007F68B6E71A465B68A342FBD10023536048
:101E6C00DEE70C233046336000F00CF894E7056095
:101E7C00D6E700BF2C0200200148FFF711BF00BFBE
:101E8C00240200200148FFF70CBF00BF24020020F1
:101E9C002DE9F0471F468E688246BE420C4690469E
:101EAC000B682DD8B1F90C2012F4906F26D065690F
:101EBC00096905EB4505A3EB010905EBD5757B1C01
:101ECC004B446D109D4238BF1D46530527D52946FE
:101EDC00FFF752FF064660B34A46216900F0FAFA52
:101EEC00A38923F4906343F08003A38126614E44BD
:101EFC0026603E466561A5EB0905A560BE4200D98A
:101F0C003E4632464146206800F0ACFA0020A368F9
:101F1C009B1BA360236833442360BDE8F0872A46EB
:101F2C0000F0E6FA06460028E0D150462169FFF79A
:101F3C00B9FE0C23CAF80030A3894FF0FF3043F0F0
:101F4C004003A381E9E700002DE9F04F98468B8907
:101F5C0007461B060D4614469DB010D50B6973B988
:101F6C004021FFF709FF2860286130B90C233B6042
:101F7C004FF0FF301DB0BDE8F08F40236B610023A4
:101F8C00099320238DF8293030234FF00109CDF827
:101F9C000C80DFF898818DF82A3023469A4613F886
:101FAC00012B0AB1252AF9D1BAEB040B0BD05B46F5
:101FBC00224629463846FFF76BFF013000F0A78018
:101FCC00099A5A4409929AF80030002B00F09F802D
:101FDC0000234FF0FF32CDE905230AF1010A0493E7
:101FEC0007938DF853301A935446052214F8011BAD
:101FFC004E4800F061FA049AD8B9D00644BF2023A9
:10200C008DF85330110744BF2B238DF853309AF8B9
:10201C0000302A2B15D0544600204FF00A0C079A9A
:10202C00214611F8013B303B092B4BD9B0B107923B
:10203C0014E0A0EB080309FA03F31343A24604933C
:10204C00D2E7039B191D1B680391002BBBBF5B429E
:10205C0042F0020207930793B8BF049223782E2B09
:10206C000AD163782A2B32D1039B02341A1D1B68C8
:10207C00039243EAE3730593DFF8B4A003225046BE
:10208C00217800F019FA38B14022049BA0EB0A0029
:10209C00824013430134049314F8011B0622254893
:1020AC008DF8281000F008FA002836D0224B1BBB04
:1020BC00039B073323F0070308330393099B334433
:1020CC0009936AE70C4601200CFB0232A8E70023B7
:1020DC004FF00A0C194601340593204610F8012BD9
:1020EC00303A092A03D9002BC6D00591C4E704461F
:1020FC0001230CFB0121F0E703AB00932A46384681
:10210C000E4B04A9AFF30080421C0646D6D1AB8916
:10211C005B063FF52DAF09982CE703AB00932A46DD
:10212C003846064B04A900F07DF8EDE7C2250008FF
:10213C00C8250008CC250008000000009D1E0008E2
:10214C002DE9F047164698468A680B690746934274
:10215C00B8BF1346336091F843200C46DDF820904D
:10216C000AB1013333602368990642BF33680233E6
:10217C003360256815F0060506D104F1190AE368E9
:10218C0032689B1AAB422BDC94F843302268003B3C
:10219C0018BF0123920630D44146384604F143025D
:1021AC00C847013023D02368226903F00603042BAF
:1021BC0014BF002533684FF0000608BFE56804F132
:1021CC001A0408BFED1A54F8123C08BF25EAE5754D
:1021DC009342C4BF9B1AED18B5421AD1002008E0F7
:1021EC000123524641463846C847013003D14FF0CF
:1021FC00FF30BDE8F0870135C1E73020E11881F8E8
:10220C0043005A1C94F845102244023382F84310C0
:10221C00C2E70123224641463846C8470130E6D082
:10222C000136D9E72DE9FF470F7E9146782F80467E
:10223C000C469A460C9E01F1430207D8622F0AD82D
:10224C00002F00F0D380582F00F0BA8004F1420622
:10225C0084F842703AE0A7F16303152BF6D801A17C
:10226C0051F823F0C9220008DD2200085922000889
:10227C00592200085922000859220008DD220008C2
:10228C005922000859220008592200085922000836
:10229C00DF230008072300089923000859220008AF
:1022AC0059220008012400085922000807230008BD
:1022BC005922000859220008A123000833681A1D6E
:1022CC001B68326004F1420684F8423001239EE020
:1022DC0033682068191D3160060601D51D6803E0BE
:1022EC004506FBD5B3F90050002D03DA2D236D42C2
:1022FC0084F843300A23594811E0216833680806F2
:10230C0053F8045B02D4490648BFADB26F2F33605B
:10231C0014BF0A2308235148002184F8431066682F
:10232C00002EA8BF2168A660A4BF21F00401216083
:10233C000DB9002E4BD01646B5FBF3F103FB11572C
:10234C00C75D06F8017D2F46BB420D46F4D9082B1C
:10235C000BD12368DF0708D5236961689942DEBF7A
:10236C00302306F8013C06F1FF36921B22614B46E6
:10237C0021464046CDF800A003AAFFF7E1FE01304C
:10238C004AD14FF0FF3004B0BDE8F087236843F02A
:10239C00200323607827324884F84570236831681D
:1023AC001F0651F8045B02D45F0648BFADB2316022
:1023BC00D90744BF43F0200323601DB11023ABE7C2
:1023CC002648E9E7236823F020032360F6E7164646
:1023DC00BDE733682568181D616930602E061B68DF
:1023EC0001D5196002E06806FBD51980002316465A
:1023FC002361BCE7336800211A1D32601E686268D5
:10240C00304600F059F808B1801B606063682361A6
:10241C00002384F84330AAE73246494640462369F4
:10242C00D0470130ADD023689B0713D4E068039BE1
:10243C009842B8BF1846A6E70123324649464046A3
:10244C00D04701309DD00135E36803995B1AAB424C
:10245C00F2DCEBE7002504F11906F5E7D3250008BB
:10246C00E4250008884210B501EB020402D984422D
:10247C00234607D8431EA14208D011F8012B03F8BC
:10248C00012FF8E7014602448A4200D110BD13F82F
:10249C00014D02F8014DF7E738B50023054D044610
:1024AC0008462B60FEF750F8431C02D12B6803B191
:1024BC00236038BD20020020034610B5C9B2024487
:1024CC009342184601D1002003E0047801338C427A
:1024DC00F6D110BD0A44914200F1FF3300D1704790
:1024EC0010B511F8014B914203F8014FF9D110BD11
:1024FC002DE9F041804615460C4621B91146BDE840
:10250C00F041FFF739BC2AB9FFF7CCFB0024204679
:10251C00BDE8F08100F01AF88542064602D8B5EB0A
:10252C00500FF4D829464046FFF726FC07460028F2
:10253C00ECD0B5422A46214628BF3246FFF7CAFFE7
:10254C0021464046FFF7AEFB3C46E0E751F8043C21
:10255C00181F002BBCBF0B58C0187047F8B500BF34
:10256C00F8BC08BC9E467047F8B500BFF8BC08BC68
:04257C009E467047C0
:1025800048656C6C6F0D0A00636F756E7465722020
:102590003D20256400000000000000000000000055
:1025A00001020304060708090000000001020304F9
:1025B00002030405060708090A0B0C0D0E0F101084
:1025C0000102232D302B2000686C4C0065666745A6
:1025D000464700303132333435363738394142439B
:1025E000444546003031323334353637383961624C
:0825F000636465660000000051
:0425F80031010008A5
:0425FC000D010008C5
:102600000000000000080140000000000008014038
:102610002000000000080140100000000000000041
:102620000024F40010000000010000003000002031
:1026300000000000E800002050010020B801002048
:10264000000000000000000000000000000000008A
:10265000000000000000000000000000000000007A
:10266000000000000000000000000000000000006A
:0C2670000000000000000000000000005E
:040000050800014DA1
:00000001FF
